:060000000A128A110E280D
:10000800FE00030E83120313C3000A08C4000A1279
:100018008A1177290A128A11112883133430FD00B6
:100028000230FE009E30FF00203084000A128A1140
:10003800B6220A128A11B401B501B601B701B80196
:10004800B901BA01BB01BC01BD01BE01BF01C001BC
:1000580083010A128A1130280A128A1187220A1289
:100068008A110A128A116F220A128A110A128A1137
:10007800C5220A128A1101300A128A114E220A1266
:100088008A1183120313C001C00AD2288C1E4D287E
:100098004E285C281A08BF008C121A3083120313EA
:1000A800C800F730C700C70B5728C80B57285C286B
:1000B8003130831203133F06031D63286428A628E2
:1000C8009F140D3083120313C800FB30C700C70B01
:1000D8006B28C80B6B28831203133A08C70047071D
:1000E800203E840083130008303E99000D308312AF
:1000F8000313C800FB30C700C70B8028C80B802833
:10010800831203133808C7004707203E840083136F
:100118000008303E99000D3083120313C800FB30ED
:10012800C700C70B9528C80B9528831203133608F8
:10013800C7004707203E840083130008303E99001B
:10014800C001BF0132303F06031DAB28AC28D228BE
:100158004D300A128A114E220A128A1170300A1280
:100168008A114E220A128A1183120313BE01BE0A93
:100178008C12CD288C1EC128C228CD281A08031934
:10018800C628C728CD281A0886008C12BE01C001CF
:10019800BF013E030319D128D228BE284003031902
:0E01A800D628D7284A283F280A128A110E2886
:1002000001308A000408840A820700340A342D343D
:100210002D342D342D342D342D342D342D342D34D6
:100220002D342D342D342D344D3445344E34553445
:100230002D342D342D342D342D342D342D342D34B6
:100240002D342D342D342D342D342D342D342D34A6
:100250002D342D340A343134293420344C3465346F
:1002600065347234203450346F34743465346E34F1
:10027000633469346F346D346534743472346F347C
:100280000A3432342934203445346E3476346934B7
:100290006134723420344134533443344934493462
:1002A0000A34003449346E3467347234653473343C
:1002B00065342034633461347234613463347434AB
:1002C000653472342034283473346F346C346F34B2
:1002D000203475346E3420346334613472346134C4
:1002E000633474346534723429340A3400340C1F96
:1002F0007A297B29C9291E08C100C2014108B4001E
:100300004208B5006430F0000030F1003508F30019
:100310003408F2000A128A11D0210A128A117108D7
:1003200083120313BB007008BA000A30F8000030D3
:10033000F9000A30F0000030F1003508F30034080D
:10034000F2000A128A11D0210A128A117108FB00E8
:100350007008FA000A128A1114220A128A11790806
:1003600083120313B9007808B8000A30F80000308F
:10037000F9003508FB003408FA000A128A11142229
:100380000A128A11790883120313B7007808B6009D
:100390000C1344088A00430E8300FE0E7E0E0900F3
:1003A000F501F601700871040319D729D8290F2A1D
:1003B000F701F70AE62901300310F00DF10DFF3EB9
:1003C000031DDC290130F4007408F707F11FE92947
:1003D000EA29DB2901300310F50DF60DFF3E031D60
:1003E000EB2971087302031DF72970087202031CC0
:1003F000FA29FB29022A7008F2027108031CF30390
:10040000F302751401300310F10CF00CFF3E031DD4
:10041000032A0130F702031D0E2A0F2AEA29760863
:10042000F1007508F0000800780879040319192A0A
:100430001A2A492AFD01FD0A282A01300310F80D65
:10044000F90DFF3E031D1E2A0130FC007C08FD074C
:10045000F91F2B2A2C2A1D2A79087B02031D322A18
:1004600078087A02031C352A362A3C2A7808FA02D0
:100470007908031CFB03FB0201300310F90CF80C94
:10048000FF3E031D3D2A0130FD02031D482A492A73
:100490002C2A7B08F9007A08F8000800831203135D
:1004A000C600622A0C1E552A562A522A4608840083
:1004B0000A128A1100210A128A1199000130C5001E
:1004C0004508C607460884000A128A1100210A124C
:1004D0008A11003A031D6D2A6E2A522A08008312DF
:1004E00003139F171F13831603139F121F129F13CB
:1004F000831203139F121F129F111F111F144130EB
:1005000083120313C500C50B832A862A0800013015
:10051000831603178800890183160313860183124B
:10052000031386017030831603138F040F148B1787
:100530000B170C17831203130C130800003400343C
:100540000134003402340034033400340434003401
:1005500005340034073400340834003409340034DE
:10056000003400347E088A007F0882000A128A1153
:10057000B2220A128A118000840A04087D06031937
:100580000034FF0A0319FE0AB62A0C30831603133F
:1005900099001812831203139817831603139816E1
:0A05A000831203130C121816080052
:08400000FF3FFF3FFF3FFF3FC0
:04400E00D420FF3F7C
:00000001FF
