:100000000A128A11FA2F00308A000408840A820733
:1000100000344D3445344E3455340D3448344F3467
:060020004C3441340034B1
:100F18000C308316031399001812831203139817C1
:100F2800831603139816831203130C12181608005D
:100F38008316031788018901831603138601831218
:100F48000313860183160313880183120313880190
:100F58000800F100C12F831203130C1EB42FB52F04
:100F6800AF2F710884000A128A1103200A128A110D
:100F780099000130F0007008F107710884000A1226
:100F88008A1103200A128A11003A031DCC2FCD2F93
:100F9800AF2F08000A128A119C270A128A110A1216
:100FA8008A118C270A128A1101300A128A11AD2778
:100FB8000A128A1106300A128A11AD270A128A11FA
:100FC800831203138C1EE92FEA2FED2F1A088600CF
:100FD8008C128230F300DD30F200F20BF12FF30BAC
:100FE800F12FF62FE42F0A128A110028F401F501D7
:080FF80083010A128A11CE2FB9
:08400000FF3FFF3FFF3FFF3FC0
:04400E00D420FF3F7C
:00000001FF
