:060000000A128A11FA2F1A
:100F60000C30831603139900181283120313981779
:100F7000831603139816831203130C121816080015
:100F800083160317880189018316031386018312D0
:100F90000313860183160313880183120313880148
:100FA00008000A128A11C0270A128A110A128A112D
:100FB000B0270A128A1183160313981CE02FE12F21
:100FC000E52F213083120313990083128C1EE92F21
:100FD000EA2FED2F1A0886008C128230F300DD30E4
:100FE000F200F20BF12FF30BF12FF62FDB2F0A1289
:100FF0008A110028F001F10183010A128A11D12F10
:08400000FF3FFF3FFF3FFF3FC0
:04400E00D420FF3F7C
:00000001FF
